:100000007BEF08F00000000000EF00F000000000AF
:0A0010000000000000000000F3D71C
:10001C000F0E0C6E470E0D6E0D2EFED70C2EFCD750
:06002C00000000001200BC
:06003200000000001200B6
:0A003800210E0D6E0D2EFED71200F2
:100042000B840BAE2CEF00F0010E036E026A016A04
:0A005200006A0A360232FF0E1200A7
:08005C000AAE029E000E120024
:0E006400026A016A006A086A036A000E12004E
:10007200086A096A100E0C6E0134083609360450FB
:10008200085E0550D8A0053C095ED8B007D00450E0
:1000920008260550D8B0053C0926D890003601360E
:0600A2000C2EEAD712004B
:1000A8000001DBBF02D0829E01D0828EDBBD02D070
:1000B800829C01D0828CDBBB02D0829A01D0828ADA
:1000C800DBB902D0829801D08288B1B102D0828493
:1000D80001D082948286A9DF8296DBB702D0829E05
:1000E80001D0828EDBB502D0829C01D0828CDBB33A
:1000F80002D0829A01D0828ADBB102D0829801D0E4
:100108008288B1B102D0828401D0829482868DDF48
:0E0118008296B1A102D07EDF01D08ADF1200F4
:100126000B820BAE9DEF00F0036802680168006861
:080136000A360232FF0E12002E
:10013E000CB0E1EF00F00CA287EF01F00E6A000E9A
:10014E000264F8EF00F0F00E0214D8A4C3EF00F032
:10015E00023A01380F0B02260138F00B016E0038FF
:10016E000F0B01260038F00B006E08380F0B00261F
:10017E000838F00B086E0E84D89002BEDCEF00F04B
:10018E0008360036013602360E2A02BEDCEF00F0CB
:10019E0008360036013602360E2A02BEDCEF00F0BB
:1001AE0008360036013602360E2A0E5003647DEFF5
:1001BE0001F0035E0BBC08AE82EF01F0D880800E1A
:1001CE0008640030000E002201220222D8A082EF25
:1001DE0001F0023201320032034A87EF01F082EF62
:1001EE0001F001C002F000C001F008C000F0086A82
:1001FE00000E0E8602642FEF01F0F00E0214D8A44A
:10020E0017EF01F0023A01380F0B02260138F00BFE
:10021E00016E00380F0B01260038F00B006E0E84B5
:10022E00D89002BEDCEF00F00036013602360E2A00
:10023E0002BEDCEF00F00036013602360E2A02BE98
:10024E00DCEF00F00036013602360E2ADCEF00F04D
:10025E0001C002F000C001F0006A000E0E960E887A
:10026E0002645CEF01F0F00E0214D8A447EF01F027
:10027E00023A01380F0B02260138F00B016E0E8484
:10028E00D89002BEDCEF00F0013602360E2A02BE16
:10029E00DCEF00F0013602360E2A02BEDCEF00F073
:1002AE00013602360E2ADCEF00F001C002F0016AC0
:1002BE00000E0E8602648CEF01F0F00E0214D8A42C
:1002CE006BEF01F0023A0E84D89002BEDCEF00F024
:1002DE0002360E2A02BEDCEF00F002360E2A02BEF5
:1002EE00DCEF00F002360E2ADCEF00F0010E0C6E91
:1002FE00A1DE8FEF01F0020E0C6EA9DE8FEF01F082
:10030E00040E0C6E09DF8FEF01F0080E0C6EA3DEEB
:02031E001200CB
:100320000A6A0350D8A40A800750D8A40A820A5047
:10033000D8B4F3EF01F0030AD8B4ACEF01F00AB07F
:10034000A7EF01F006AEF1EF01F0EFEF01F002AE22
:10035000EFEF01F0F1EF01F00250800B0A6E029E08
:100360000650800B069E0A18D8B4BDEF01F00A5063
:10037000D8B4EFEF01F0F1EF01F00750035CD8B40F
:10038000C7EF01F0D8A0E3EF01F0E9EF01F006506C
:10039000025CD8B4D1EF01F0D8A0E3EF01F0E9EFAF
:1003A00001F00550015CD8B4DBEF01F0D8A0E3EF19
:1003B00001F0E9EF01F00450005CD8B4F3EF01F074
:1003C000D8B0E9EF01F00A52D8B4F1EF01F0EFEF45
:1003D00001F00A52D8B4EFEF01F0F1EF01F0D8804C
:0E03E0001200D8901200D880D88412001200AB
:1003EE000D6A086A0050D8B4000C04180A6E0ABED2
:1003FE000D1E0B6A04AE02D0041E042A00AE02D0FB
:10040E00001E002A005004100A6E0ABE1FD00450AF
:10041E00085E003600340836045008260036060EF4
:10042E000C6E00340836045000B0085E00A008269A
:10043E0000360C2EF6D700A008260BB015D00DAE48
:10044E00000C001E002A081E082A000C04AE09D05B
:10045E0000BE04D00050086E006AF1D7006A002A70
:10046E00000C001E0B2AD3D7082A0450085CD8A40F
:0E047E00E6D7086A002A00AEE2D7FF0C120093
:0C048C000E0E0D6E0D2EFED700001200AB
:100498000C6A0E6A0250D8A465EF02F001C002F09F
:1004A80000C001F0006A0E860250D8A465EF02F081
:1004B80001C002F0016A0E960E880250D8B477EF98
:1004C80002F00E50035ED8A4D8A07CEF02F0D890BA
:1004D80002BE81EF02F0003601360236032E6CEFC1
:1004E80002F07CEF02F0010E0C6EB8DD84EF02F032
:1004F800020E0C6EA2DD84EF02F0040E0C6EAADD73
:020508001200DF
:10050A00D4C004F0D5C005F004C002F005C003F061
:10051A00044A052AD6C000F0D7C001F00001D64B24
:10052A00D72B00C0E9FF01C0EAFF02C0E1FF03C008
:10053A00E2FFEECFE6FF02C0E9FF03C0EAFFEE5298
:0E054A0001E0E2D7D4C000F0D5C001F01200ED
:080558000B6A0B86FF0E120076
:10056000086A096A000E0762036435EF03F002505F
:1005700006180A6E075003267E0ED8A0C6EF02F0BA
:10058000035ED8B039EF03F0CAEF02F0035ED8A0E3
:100590003DEF03F0028E068E02C00EF001C00BF09C
:1005A00000C00DF000500402F4CF0CF00150050221
:1005B000F4CF00F0F3CF08F00402F3500C26F4500F
:1005C0000822000E00220D500502F3500C26F450B4
:1005D0000822000E002202500402F3500826F450B4
:1005E000002202500502016A000E0122F35000268B
:1005F000F45001220D500602F3500826F450002258
:10060000026A000E012202220B500602F35000265D
:10061000F4500122000E02220E500602F350012671
:10062000F450022202BE1DEF03F0083600360136F8
:1006300002360306D8B43DEF03F030EF03F0D88064
:10064000800E08640030000E002201220222D8A091
:1006500030EF03F0023201320032034A39EF03F087
:100660000AAE029E000E3FEF03F0010EFBDC3FEFEF
:1006700003F0020E58DD3FEF03F0040EE2DC12003F
:0E0680000001B191D4C0DBF00FDDB18112009A
:10068E000001D46BD66BD76B100ED86F040ED75DEE
:10069E0029E2F00E836E120E006E000E016E830EB6
:1006AE000024E16E0F0E0120E26ED81D006E00C018
:1006BE00E6FFB8DCB7DC0F0E8314006E00C0D5F079
:1006CE0000520AE0D6C0D4F0D55304E0D533D59FFE
:1006DE00D42BFAD7040ED76FD837D891040ED6275D
:0A06EE00D72BD4D7D4C000F01200BF
:0C06F800060E0D6E0D2EFED70000120045
:100704000001D86B050ED85D0AE2D851D625E16EFA
:10071400000ED721E26E200EE66ED82BF3D7D85107
:10072400D625E16E000ED721E26EE66AD807D851CD
:10073400D625D96F000ED721DA6F0A0E046E000E8B
:10074400056ED4C000F0D5C001F091DC08C000F003
:1007540009C001F0300E0026D9C0E1FFDAC0E2FF83
:1007640000C0E6FF0A0E046E000E056ED4C000F051
:10077400D5C001F07CDC00C0D4F001C0D5F0000E7F
:10078400011802E1000E001801E102D0D807CFD70A
:02079400120051
:10079600949694949498949A949C949E8296829417
:1007A600829E829C829A829836DC35DC34DC828A90
:1007B600828882863BDC82962EDC828637DC8296B5
:1007C6002ADC828633DC829626DC829882862EDCC0
:1007D600829621DC82862ADC8296829A828E8286A4
:1007E60025DC829618DC829E828882861FDC8296B1
:1007F600829882861BDC82960EDC828617DC8296C5
:100806008288828613DC829606DC829882860EDCDB
:100816008296828E828C828A8288828607DC829683
:0A0826000EEC00F00001B181120099
:100830000900F5CFE6FF0006FBE10106F9E1120031
:10084000120E006E000E016E830E0024E16E0F0E7C
:0A0850000120E26EFF0EE66E1200BA
:10085A0010D0800E0001C66F1AD0C00EC66F17D016
:10086A00940EC66F14D0D40EC66F11D0800EC66F08
:10087A000ED00001C651010AECE0C651020AEDE0B1
:10088A00C651030AEDE0C651040AEDE0EFD7C705E9
:10089A00006EC651002600C0C6F000C0DBF054EC62
:1008AA0000F0B191CA6BCA51C825E96E000EC92180
:1008BA00EA6EEE520BE0CA51C825E96E000EC92154
:1008CA00EA6EEECFD4F0D7DECA2BEDD7B181120093
:1008DA00D9DE00C0C6F00F0E8314006E02E007DFF7
:0808EA00FAD7C6C000F01200AD
:1008F2000001D26BD36BC6C0CEF0C7C0CFF0C8C068
:10090200D0F0C9C0D1F0D151FF0A08E1D051FF0A9D
:1009120005E1CF51FF0A02E1CE51FF0A0CE1CAC044
:10092200D4F0CBC0D5F0740ED66F000ED76FECDDCD
:10093200030E006EEBD1010ECC6FD0AF0ED0800E45
:10094200D019006E00C0D0F0CC2BCAC0E1FFCBC0E2
:10095200E2FF2D0EE66ECA4BCB2B000E006ED119B4
:1009620008E10050D01905E10050CF1902E1CE5143
:10097200000A0BE1CAC0D4F0CBC0D5F06C0ED66F22
:10098200000ED76FC1DD006AC1D1D151FF0A08E163
:10099200D051000A05E1CF51000A02E1CE51000A0E
:1009A2000CE1CAC0D4F0CBC0D5F03E0ED66F000E1B
:1009B200D76FAADDCCC000F0A9D1000E046E000EE4
:1009C200056E000E066E7F0E076ECEC000F0CFC021
:1009D20001F0D0C002F0D1C003F0A1DC010ED8B00A
:1009E200000E006E00521BE0CEC000F0CFC001F03E
:1009F200D0C002F0D1C003F0000E046E000E056EEE
:100A0200200E066E820E076EAADD00C0CEF001C077
:100A1200CFF002C0D0F003C0D1F0D307CED7000E82
:100A2200046E000E056E200E066E820E076ECEC09C
:100A320000F0CFC001F0D0C002F0D1C003F06FDCF3
:100A4200000ED8B0010E006E00521BE0CEC000F0C6
:100A5200CFC001F0D0C002F0D1C003F0CD0E046EC1
:100A6200CC0E056E4C0E066E7B0E076E78DD00C056
:100A7200CEF001C0CFF002C0D0F003C0D1F0D32B32
:100A8200CED7FF0ECE15086EFF0ECF15096E7F0E64
:100A9200D0150A6E000ED1150B6E08C004F009C005
:100AA20005F00AC006F00BC007F0043604900536C4
:100AB20006360736000ECE15006E000ECF15016EFB
:100AC200000ED015026EFF0ED115036E00C0CEF0DF
:100AD20001C0CFF002C0D0F003C0D1F00450CE115B
:100AE200006E0550CF11016E0650D011026E0750F4
:100AF200D111036E00C0CEF001C0CFF002C0D0F021
:100B020003C0D1F07F0ED15D006E00C0CDF0010EAA
:100B1200D16F00C004F0CEC000F0CFC001F0D0C051
:100B220002F0D1C003F0045007E000360090013615
:100B320002360336FF0FF8D700C0CEF001C0CFF067
:100B420002C0D0F003C0D1F0CAC0E1FFCBC0E2FFC7
:100B5200D151300FE66ECA4BCB2B800ED319006EEB
:100B6200800E010A005C08E3800E060A006E800E09
:100B7200D319005C01E30AD0CAC0E1FFCBC0E2FF97
:100B82002E0EE66ECA4BCB2B010ED26F060ECD6F28
:100B9200CD51000A54E0D16BCEC000F0CFC001F0BD
:100BA200D0C002F0D1C003F0003600900136023608
:100BB200033600360090013602360336CE51002647
:100BC200CF510122D0510222D151032200C0CEF0D6
:100BD20001C0CFF002C0D0F003C0D1F0CEC000F00F
:100BE200CFC001F0D0C002F0D1C003F000360090B7
:100BF20001360236033600C0CEF001C0CFF002C08B
:100C0200D0F003C0D1F0CAC0E1FFCBC0E2FFD151A6
:100C1200300FE66ECA4BCB2BD251000A0EE1D3073E
:100C2200D351000A0AE1CAC0E1FFCBC0E2FF2E0E97
:100C3200E66ECA4BCB2B010ED26FCD07A9D7FF0EA2
:100C4200CA25E96EFF0ECB21EA6EEE50300A05E1AD
:100C5200010ECA5F000ECB5BF2D7FF0ECA25E96E0A
:100C6200FF0ECB21EA6EEE502E0A04E1010ECA5F9E
:100C7200000ECB5BD351000A43E0CAC0E1FFCBC0F8
:100C8200E2FF650EE66ECA4BCB2B800ED319006EC7
:100C9200800E000A005C0BE2CAC0E1FFCBC0E2FF9B
:100CA2002D0EE66ECA4BCB2BD3510008D36FD3C0A7
:100CB200CDF0800E090A006E800ED319005C0FE29F
:100CC2000A0E046ECDC000F0F7EC01F0CAC0E1FFDD
:100CD200CBC0E2FF0050300FE66ECA4BCB2B0A0EA0
:100CE200046ECDC000F0F7EC01F008C000F0CAC0FD
:100CF200E1FFCBC0E2FF0050300FE66ECA4BCB2BB8
:0E0D0200CAC0E1FFCBC0E2FFE66A006A120041
:100D10000450000A12E10550000A0FE10650000AD3
:100D20000CE10750000A09E1FF0E006EFF0E016E94
:100D30007F0E026EFF0E036EA8D0086A096A075084
:100D4000D8B433EF07F00350D8B438EF07F00250AF
:100D500006180A6E028E068E0E6A02C008F001C0E6
:100D60000CF000C00DF004500D5E0550D8A0053CFD
:100D70000C5E0650D8A0063C085E086A0C6A0D6A34
:100D8000D8A0CAEF06F0D890023201320032083201
:100D9000010E0E6E0750035ED8A0D7EF06F07E0E50
:100DA0000E240326D8B03DEF07F0DDEF06F07E0EEF
:100DB0000E240326D8A042EF07F0180E0B6E0D3656
:100DC0000C3608360036013602360E360450005E08
:100DD0000550D8A0053C015E0650D8A0063C025E36
:100DE00006340E120EA0F8EF06F00D8003EF07F0A8
:100DF000045000260550D8B0053C01260650D8B056
:100E0000062802260D900B2EDFEF06F029EF07F0E3
:100E1000D8900036013602360E360450005E05507A
:100E2000D8A0053C015E0650D8A0063C025E063400
:100E30000E10010B0D26D8B00C2AD8B4082AD8A45D
:100E400029EF07F008320C320D32032AD8B43DEFF7
:100E500007F00AAE089E0850026E0C50016E0D504D
:100E6000006E45EF07F0010EACEC02F045EF07F025
:100E7000020E32EC00F045EF07F0040E93EC00F0A8
:0C0E800045EF07F0080E21EC00F0120016
:100E8C0003500718D8A45AEF07F002500618D8A43C
:100E9C005AEF07F001500518D8A45AEF07F000508C
:0E0EAC000418D8B4D8841200D8941200120092
:100EBA0000C008F00B6A0C6A9E0E036E0A6A026A88
:0E0ECA00016A006A020E0C6E9FEC00F012002E
:100ED8000050086E0150006E016A026A036A0B6ACC
:100EE8000C6A960E036E0A6A00C001F008C000F092
:0A0EF800086A026A4CEC02F01200D6
:100F02000001C86BC96BC6C003F0C7C004F0C6C0FD
:100F120005F0C7C006F003C0E9FF04C0EAFFEE50C7
:100F2200200A04E1C851C91101E110D0010EC86FB5
:100F3200000EC96F03C0E9FF04C0EAFF05C0E1FF6C
:100F420006C0E2FFEECFE6FF054A062A03C001F023
:100F520004C002F0034A042A01C0E9FF02C0EAFF0A
:100F6200EE50000AD8E1C6C000F0C7C001F012007E
:100F72000001CC6BCD6BC6C0CEF0C7C0CFF0800EE7
:100F8200C719006E800E005C02E1000EC65D0BE226
:100F9200010ECC6F000ECD6FC6510008CE6FC7C0D8
:100FA200CFF0000ECF57CEC0D4F0CFC0D5F0C8C01E
:100FB200D6F0C9C0D7F082EC03F0060ECA6F000E5D
:100FC200CB6F000E006ECB51005C02E1CA510008EB
:100FD20019E2CA51C825E16ECB51C921E26E010E58
:100FE200CA5D006E000ECB59016E0050C825E96E35
:100FF2000150C921EA6EEECFE6FF010ECA5F000E74
:10100200CB5BDFD7C8C0E1FFC9C0E2FF200EE66EAE
:10101200CC51CD111AE0CA6BCB6BCA51C825E96E0F
:10102200CB51C921EA6EEE50200A03E1CA4BCB2B09
:10103200F4D7010ECA5F000ECB5BCA51C825E16E20
:0C104200CB51C921E26E2D0EE66E1200AB
:10104E00C26AC00EC212781C006E0050C116C18C4E
:10105E00C18EC6C000F000360090003600900036FB
:10106E0000900050C212C28046EC02F0C284C2A4AC
:10107E0001D0FDD7C4CF01F0006AC3500012000E9C
:06108E000112C2901200E5
:1010940010D0800E0001C66F1AD0C00EC66F17D0D4
:1010A400940EC66F14D0D40EC66F11D0800EC66FC6
:1010B4000ED00001C651010AECE0C651020AEDE06F
:1010C400C651030AEDE0C651040AEDE0EFD7C705A7
:1010D400006EC651002600C0C6F0B18100C0DBF02E
:1010E40054EC00F0B191C8C0DBF054EC00F0B181D5
:0210F4001200E8
:1010F60059EC0AF020EC04F0C46AC36AC16A928013
:10110600946A9590959220EC04F0CBEC03F0010ED6
:10111600DB6F54EC00F00C0EDB6F54EC00F0010EAC
:10112600C66F010EC76F570EC86F000EC96F2DEC44
:1011360004F0020EC66F020EC76F420EC86F000E95
:10114600C96F2DEC04F00B0E0B6E260E0C6E5D0EA9
:101156000D6E0D2EFED70C2EFCD70B2EFAD70000E7
:10116600000081908192010EDB6F54EC00F0010EBD
:10117600C66F010EC76F150EC86F000EC96F2DEC36
:1011860004F0C16B020EC66F020EC76F2B0EC86F3E
:10119600000EC96F2DEC04F06DEC04F000C0B2F047
:1011A6000052FAE0B2510F0A01E123D0B25103080E
:1011B60004E2080EB25DD8A0B207B251080805E2F3
:1011C6000C0EB25D02E2020EB25FB2510E0AD8B444
:1011D600B26BB2510D0A01E1C6D7300EB225D46FFB
:1011E60040EC03F00A0EC103F3CFC1F0B251C127A0
:1011F600D3D7010EDB6F54EC00F0020EC66F020E61
:10120600C76F800EC86F000EC96F2DEC04F0C1C009
:10121600C6F0000EC76FB30EC86F000EC96FA6DE0C
:10122600B30EC66F000EC76F69DE050EC66F050EDC
:10123600C76F900EC86F000EC96F2DEC04F0B26B2D
:10124600B2510F0A07E06DEC04F000C0B2F0005294
:10125600FAE0F6D7010EDB6F54EC00F0010EC66F14
:10126600010EC76FA10EC86F000EC96F2DEC04F0FA
:10127600010EC66F0A0EC76F7B0EC86F08DF010E20
:10128600C66F0B0EC76F430EC86F01DFC66BDCDE81
:1012960020DE000E046E400E056E1C0E066E8B0ED2
:1012A600076EB0EC02F0000E046E000E056E000E26
:1012B600066E890E076E29DD000E046E000E056EA1
:1012C600200E066E830E076E20DD00C0C2F001C040
:1012D600C3F002C0C4F003C0C5F0C1C0C6F0000E22
:1012E6000001C76FB30EC86F000EC96F3FDEB30EA5
:1012F600C66F000EC76F02DE010EC66F0B0EC76FFC
:1013060000C0C8F0000EC96F2DEC04F0020EC66FC7
:10131600020EC76F790EC86F000EC96F2DEC04F070
:10132600C2C0C6F0C3C0C7F0C4C0C8F0C5C0C9F0CB
:10133600B30ECA6F000ECB6F79EC04F0B46B020EDD
:10134600C66F070EC76FB30EC86F000EC96F2DECC0
:1013560004F0020EC66F0C0EC76F6E0EC86F000E3D
:10136600C96F2DEC04F0C1C000F0A4DD00C004F08C
:1013760001C005F002C006F003C007F0C2C000F0CD
:10138600C3C001F0C4C002F0C5C003F090EC01F088
:10139600010ED8B0000E006E005202E081808192EC
:1013A600C1C000F087DDC2C004F0C3C005F0C4C0F0
:1013B60006F0C5C007F090EC01F0010ED8B0000EA3
:1013C600006E005202E081908182C1C000F072DDA1
:1013D600C2C004F0C3C005F0C4C006F0C5C007F023
:1013E60052DD010ED8A4000E006E005202E081907C
:1013F6008192CB0E0B6EEC0E0C6E840E0D6E0D2EC6
:10140600FED70C2EFCD70B2EFAD700003FD7FFD7FE
:1014B20010EE15F09C0E006E010E016E160EF66E09
:0E14C200140EF76E000EF86E18EC04F0120017
:101416004175746F6D617469632074656D65707272
:061426006174757265009F
:10142C003233206465677265652043656C7369753A
:03143C007320001A
:04143F00494E4600CC
:1014430054656D7065726174757265206D65617345
:051453007572656400E4
:10145800577269746520796F7572206E616D6520A9
:051468006865726500DB
:02146D0030004D
:06146F00203130202000B6
:041475004E614E0076
:011479000F63
:07147A0054656D703D200078
:1014810054656D70206D656173757265643A2000F5
:101491005072657373203020746F20436F6E742E09
:0114A100004A
:1014A2002054656D70206D656173757265643A00D4
:020000040030CA
:0D000100220F0EFF0181FF0FC00FE00F4026
:00000001FF
